{
  "_format": "hh-sol-artifact-1",
  "contractName": "MyEIP1155V2",
  "sourceName": "contracts/MyEIP1155V2.sol",
  "abi": [
    {
      "anonymous": false,
      "inputs": [
        {
          "indexed": true,
          "internalType": "address",
          "name": "account",
          "type": "address"
        },
        {
          "indexed": true,
          "internalType": "address",
          "name": "byWhom",
          "type": "address"
        }
      ],
      "name": "AddedToWhitelist",
      "type": "event"
    },
    {
      "anonymous": false,
      "inputs": [
        {
          "indexed": true,
          "internalType": "address",
          "name": "account",
          "type": "address"
        },
        {
          "indexed": true,
          "internalType": "address",
          "name": "operator",
          "type": "address"
        },
        {
          "indexed": false,
          "internalType": "bool",
          "name": "approved",
          "type": "bool"
        }
      ],
      "name": "ApprovalForAll",
      "type": "event"
    },
    {
      "anonymous": false,
      "inputs": [
        {
          "indexed": true,
          "internalType": "address",
          "name": "initializer",
          "type": "address"
        },
        {
          "indexed": false,
          "internalType": "string",
          "name": "uri",
          "type": "string"
        },
        {
          "indexed": false,
          "internalType": "uint256",
          "name": "initialSupply",
          "type": "uint256"
        }
      ],
      "name": "Initialized",
      "type": "event"
    },
    {
      "anonymous": false,
      "inputs": [
        {
          "indexed": false,
          "internalType": "uint8",
          "name": "version",
          "type": "uint8"
        }
      ],
      "name": "Initialized",
      "type": "event"
    },
    {
      "anonymous": false,
      "inputs": [
        {
          "indexed": true,
          "internalType": "address",
          "name": "account",
          "type": "address"
        },
        {
          "indexed": true,
          "internalType": "address",
          "name": "byWhom",
          "type": "address"
        }
      ],
      "name": "RemovedFromWhitelist",
      "type": "event"
    },
    {
      "anonymous": false,
      "inputs": [
        {
          "indexed": true,
          "internalType": "bytes32",
          "name": "role",
          "type": "bytes32"
        },
        {
          "indexed": true,
          "internalType": "bytes32",
          "name": "previousAdminRole",
          "type": "bytes32"
        },
        {
          "indexed": true,
          "internalType": "bytes32",
          "name": "newAdminRole",
          "type": "bytes32"
        }
      ],
      "name": "RoleAdminChanged",
      "type": "event"
    },
    {
      "anonymous": false,
      "inputs": [
        {
          "indexed": true,
          "internalType": "bytes32",
          "name": "role",
          "type": "bytes32"
        },
        {
          "indexed": true,
          "internalType": "address",
          "name": "account",
          "type": "address"
        },
        {
          "indexed": true,
          "internalType": "address",
          "name": "sender",
          "type": "address"
        }
      ],
      "name": "RoleGranted",
      "type": "event"
    },
    {
      "anonymous": false,
      "inputs": [
        {
          "indexed": true,
          "internalType": "bytes32",
          "name": "role",
          "type": "bytes32"
        },
        {
          "indexed": true,
          "internalType": "address",
          "name": "account",
          "type": "address"
        },
        {
          "indexed": true,
          "internalType": "address",
          "name": "sender",
          "type": "address"
        }
      ],
      "name": "RoleRevoked",
      "type": "event"
    },
    {
      "anonymous": false,
      "inputs": [
        {
          "indexed": true,
          "internalType": "address",
          "name": "operator",
          "type": "address"
        },
        {
          "indexed": true,
          "internalType": "address",
          "name": "from",
          "type": "address"
        },
        {
          "indexed": true,
          "internalType": "address",
          "name": "to",
          "type": "address"
        },
        {
          "indexed": false,
          "internalType": "uint256[]",
          "name": "ids",
          "type": "uint256[]"
        },
        {
          "indexed": false,
          "internalType": "uint256[]",
          "name": "values",
          "type": "uint256[]"
        }
      ],
      "name": "TransferBatch",
      "type": "event"
    },
    {
      "anonymous": false,
      "inputs": [
        {
          "indexed": true,
          "internalType": "address",
          "name": "operator",
          "type": "address"
        },
        {
          "indexed": true,
          "internalType": "address",
          "name": "from",
          "type": "address"
        },
        {
          "indexed": true,
          "internalType": "address",
          "name": "to",
          "type": "address"
        },
        {
          "indexed": false,
          "internalType": "uint256",
          "name": "id",
          "type": "uint256"
        },
        {
          "indexed": false,
          "internalType": "uint256",
          "name": "value",
          "type": "uint256"
        }
      ],
      "name": "TransferSingle",
      "type": "event"
    },
    {
      "anonymous": false,
      "inputs": [
        {
          "indexed": false,
          "internalType": "string",
          "name": "value",
          "type": "string"
        },
        {
          "indexed": true,
          "internalType": "uint256",
          "name": "id",
          "type": "uint256"
        }
      ],
      "name": "URI",
      "type": "event"
    },
    {
      "anonymous": false,
      "inputs": [
        {
          "indexed": false,
          "internalType": "string",
          "name": "newUri",
          "type": "string"
        },
        {
          "indexed": true,
          "internalType": "address",
          "name": "changedBy",
          "type": "address"
        }
      ],
      "name": "URIChanged",
      "type": "event"
    },
    {
      "inputs": [],
      "name": "ADMIN_ROLE",
      "outputs": [
        {
          "internalType": "bytes32",
          "name": "",
          "type": "bytes32"
        }
      ],
      "stateMutability": "view",
      "type": "function"
    },
    {
      "inputs": [],
      "name": "DEFAULT_ADMIN_ROLE",
      "outputs": [
        {
          "internalType": "bytes32",
          "name": "",
          "type": "bytes32"
        }
      ],
      "stateMutability": "view",
      "type": "function"
    },
    {
      "inputs": [],
      "name": "MINTER_ROLE",
      "outputs": [
        {
          "internalType": "bytes32",
          "name": "",
          "type": "bytes32"
        }
      ],
      "stateMutability": "view",
      "type": "function"
    },
    {
      "inputs": [],
      "name": "URI_SETTER_ROLE",
      "outputs": [
        {
          "internalType": "bytes32",
          "name": "",
          "type": "bytes32"
        }
      ],
      "stateMutability": "view",
      "type": "function"
    },
    {
      "inputs": [
        {
          "internalType": "address",
          "name": "account",
          "type": "address"
        }
      ],
      "name": "addToWhitelist",
      "outputs": [],
      "stateMutability": "nonpayable",
      "type": "function"
    },
    {
      "inputs": [
        {
          "internalType": "address",
          "name": "account",
          "type": "address"
        },
        {
          "internalType": "uint256",
          "name": "id",
          "type": "uint256"
        }
      ],
      "name": "balanceOf",
      "outputs": [
        {
          "internalType": "uint256",
          "name": "",
          "type": "uint256"
        }
      ],
      "stateMutability": "view",
      "type": "function"
    },
    {
      "inputs": [
        {
          "internalType": "address[]",
          "name": "accounts",
          "type": "address[]"
        },
        {
          "internalType": "uint256[]",
          "name": "ids",
          "type": "uint256[]"
        }
      ],
      "name": "balanceOfBatch",
      "outputs": [
        {
          "internalType": "uint256[]",
          "name": "",
          "type": "uint256[]"
        }
      ],
      "stateMutability": "view",
      "type": "function"
    },
    {
      "inputs": [
        {
          "internalType": "bytes32",
          "name": "role",
          "type": "bytes32"
        }
      ],
      "name": "getRoleAdmin",
      "outputs": [
        {
          "internalType": "bytes32",
          "name": "",
          "type": "bytes32"
        }
      ],
      "stateMutability": "view",
      "type": "function"
    },
    {
      "inputs": [
        {
          "internalType": "uint256",
          "name": "tokenId",
          "type": "uint256"
        }
      ],
      "name": "getURI",
      "outputs": [
        {
          "internalType": "string",
          "name": "",
          "type": "string"
        }
      ],
      "stateMutability": "view",
      "type": "function"
    },
    {
      "inputs": [
        {
          "internalType": "address",
          "name": "account",
          "type": "address"
        }
      ],
      "name": "grantMinterRole",
      "outputs": [],
      "stateMutability": "nonpayable",
      "type": "function"
    },
    {
      "inputs": [
        {
          "internalType": "bytes32",
          "name": "role",
          "type": "bytes32"
        },
        {
          "internalType": "address",
          "name": "account",
          "type": "address"
        }
      ],
      "name": "grantRole",
      "outputs": [],
      "stateMutability": "nonpayable",
      "type": "function"
    },
    {
      "inputs": [
        {
          "internalType": "bytes32",
          "name": "role",
          "type": "bytes32"
        },
        {
          "internalType": "address",
          "name": "account",
          "type": "address"
        }
      ],
      "name": "hasRole",
      "outputs": [
        {
          "internalType": "bool",
          "name": "",
          "type": "bool"
        }
      ],
      "stateMutability": "view",
      "type": "function"
    },
    {
      "inputs": [
        {
          "internalType": "string",
          "name": "uri",
          "type": "string"
        }
      ],
      "name": "initialize",
      "outputs": [],
      "stateMutability": "nonpayable",
      "type": "function"
    },
    {
      "inputs": [
        {
          "internalType": "address",
          "name": "account",
          "type": "address"
        },
        {
          "internalType": "address",
          "name": "operator",
          "type": "address"
        }
      ],
      "name": "isApprovedForAll",
      "outputs": [
        {
          "internalType": "bool",
          "name": "",
          "type": "bool"
        }
      ],
      "stateMutability": "view",
      "type": "function"
    },
    {
      "inputs": [
        {
          "internalType": "address",
          "name": "account",
          "type": "address"
        }
      ],
      "name": "isWhitelisted",
      "outputs": [
        {
          "internalType": "bool",
          "name": "",
          "type": "bool"
        }
      ],
      "stateMutability": "view",
      "type": "function"
    },
    {
      "inputs": [
        {
          "internalType": "address",
          "name": "account",
          "type": "address"
        },
        {
          "internalType": "uint256",
          "name": "id",
          "type": "uint256"
        },
        {
          "internalType": "uint256",
          "name": "amount",
          "type": "uint256"
        }
      ],
      "name": "mint",
      "outputs": [],
      "stateMutability": "nonpayable",
      "type": "function"
    },
    {
      "inputs": [
        {
          "internalType": "address",
          "name": "account",
          "type": "address"
        },
        {
          "internalType": "uint256[]",
          "name": "ids",
          "type": "uint256[]"
        },
        {
          "internalType": "uint256[]",
          "name": "amounts",
          "type": "uint256[]"
        }
      ],
      "name": "mintBatch",
      "outputs": [],
      "stateMutability": "nonpayable",
      "type": "function"
    },
    {
      "inputs": [
        {
          "internalType": "uint256",
          "name": "",
          "type": "uint256"
        }
      ],
      "name": "newMetadata",
      "outputs": [
        {
          "internalType": "string",
          "name": "",
          "type": "string"
        }
      ],
      "stateMutability": "view",
      "type": "function"
    },
    {
      "inputs": [
        {
          "internalType": "address",
          "name": "account",
          "type": "address"
        }
      ],
      "name": "removeFromWhitelist",
      "outputs": [],
      "stateMutability": "nonpayable",
      "type": "function"
    },
    {
      "inputs": [
        {
          "internalType": "bytes32",
          "name": "role",
          "type": "bytes32"
        },
        {
          "internalType": "address",
          "name": "account",
          "type": "address"
        }
      ],
      "name": "renounceRole",
      "outputs": [],
      "stateMutability": "nonpayable",
      "type": "function"
    },
    {
      "inputs": [
        {
          "internalType": "address",
          "name": "account",
          "type": "address"
        }
      ],
      "name": "revokeMinterRole",
      "outputs": [],
      "stateMutability": "nonpayable",
      "type": "function"
    },
    {
      "inputs": [
        {
          "internalType": "bytes32",
          "name": "role",
          "type": "bytes32"
        },
        {
          "internalType": "address",
          "name": "account",
          "type": "address"
        }
      ],
      "name": "revokeRole",
      "outputs": [],
      "stateMutability": "nonpayable",
      "type": "function"
    },
    {
      "inputs": [
        {
          "internalType": "address",
          "name": "from",
          "type": "address"
        },
        {
          "internalType": "address",
          "name": "to",
          "type": "address"
        },
        {
          "internalType": "uint256[]",
          "name": "ids",
          "type": "uint256[]"
        },
        {
          "internalType": "uint256[]",
          "name": "amounts",
          "type": "uint256[]"
        },
        {
          "internalType": "bytes",
          "name": "data",
          "type": "bytes"
        }
      ],
      "name": "safeBatchTransferFrom",
      "outputs": [],
      "stateMutability": "nonpayable",
      "type": "function"
    },
    {
      "inputs": [
        {
          "internalType": "address",
          "name": "from",
          "type": "address"
        },
        {
          "internalType": "address",
          "name": "to",
          "type": "address"
        },
        {
          "internalType": "uint256",
          "name": "id",
          "type": "uint256"
        },
        {
          "internalType": "uint256",
          "name": "amount",
          "type": "uint256"
        },
        {
          "internalType": "bytes",
          "name": "data",
          "type": "bytes"
        }
      ],
      "name": "safeTransferFrom",
      "outputs": [],
      "stateMutability": "nonpayable",
      "type": "function"
    },
    {
      "inputs": [
        {
          "internalType": "address",
          "name": "operator",
          "type": "address"
        },
        {
          "internalType": "bool",
          "name": "approved",
          "type": "bool"
        }
      ],
      "name": "setApprovalForAll",
      "outputs": [],
      "stateMutability": "nonpayable",
      "type": "function"
    },
    {
      "inputs": [
        {
          "internalType": "uint256",
          "name": "tokenId",
          "type": "uint256"
        },
        {
          "internalType": "string",
          "name": "metadata",
          "type": "string"
        }
      ],
      "name": "setNewMetadata",
      "outputs": [],
      "stateMutability": "nonpayable",
      "type": "function"
    },
    {
      "inputs": [
        {
          "internalType": "string",
          "name": "newuri",
          "type": "string"
        }
      ],
      "name": "setURI",
      "outputs": [],
      "stateMutability": "nonpayable",
      "type": "function"
    },
    {
      "inputs": [
        {
          "internalType": "bytes4",
          "name": "interfaceId",
          "type": "bytes4"
        }
      ],
      "name": "supportsInterface",
      "outputs": [
        {
          "internalType": "bool",
          "name": "",
          "type": "bool"
        }
      ],
      "stateMutability": "view",
      "type": "function"
    },
    {
      "inputs": [
        {
          "internalType": "uint256",
          "name": "",
          "type": "uint256"
        }
      ],
      "name": "uri",
      "outputs": [
        {
          "internalType": "string",
          "name": "",
          "type": "string"
        }
      ],
      "stateMutability": "view",
      "type": "function"
    }
  ],
  "bytecode": "0x608060405234801561001057600080fd5b50614a9e806100206000396000f3fe608060405234801561001057600080fd5b50600436106101ce5760003560e01c806369e2f0fb11610104578063d5391393116100a2578063e97e9b6f11610071578063e97e9b6f14610537578063e985e9c514610567578063f242432a14610597578063f62d1888146105b3576101ce565b8063d5391393146104c5578063d547741f146104e3578063d81d0a15146104ff578063e43252d71461051b576101ce565b80638ab1d681116100de5780638ab1d6811461043f57806391d148541461045b578063a217fddf1461048b578063a22cb465146104a9576101ce565b806369e2f0fb146103e757806375b238fc146104035780637f34571014610421576101ce565b80632eb2c2d6116101715780633af32abf1161014b5780633af32abf1461034f5780633dd1eb611461037f57806342f550021461039b5780634e1273f4146103b7576101ce565b80632eb2c2d6146102fb5780632f2ff15d1461031757806336568abe14610333576101ce565b80630e89341c116101ad5780630e89341c1461024f578063156e29f61461027f5780631aa347dc1461029b578063248a9ca3146102cb576101ce565b8062fdd58e146101d357806301ffc9a71461020357806302fe530514610233575b600080fd5b6101ed60048036038101906101e8919061357b565b6105cf565b6040516101fa9190613fd5565b60405180910390f35b61021d600480360381019061021891906136d7565b610699565b60405161022a9190613d52565b60405180910390f35b61024d60048036038101906102489190613729565b6106ab565b005b610269600480360381019061026491906137ab565b610730565b6040516102769190613da3565b60405180910390f35b610299600480360381019061029491906135b7565b6107c4565b005b6102b560048036038101906102b091906137ab565b610883565b6040516102c29190613da3565b60405180910390f35b6102e560048036038101906102e09190613672565b61091a565b6040516102f29190613d6d565b60405180910390f35b61031560048036038101906103109190613372565b61093a565b005b610331600480360381019061032c919061369b565b6109db565b005b61034d6004803603810190610348919061369b565b6109fc565b005b6103696004803603810190610364919061330d565b610a7f565b6040516103769190613d52565b60405180910390f35b6103996004803603810190610394919061330d565b610ad5565b005b6103b560048036038101906103b091906137d4565b610b2d565b005b6103d160048036038101906103cc9190613606565b610b59565b6040516103de9190613cf9565b60405180910390f35b61040160048036038101906103fc919061330d565b610d0a565b005b61040b610d62565b6040516104189190613d6d565b60405180910390f35b610429610d86565b6040516104369190613d6d565b60405180910390f35b6104596004803603810190610454919061330d565b610daa565b005b6104756004803603810190610470919061369b565b610e8a565b6040516104829190613d52565b60405180910390f35b610493610ef5565b6040516104a09190613d6d565b60405180910390f35b6104c360048036038101906104be919061353f565b610efc565b005b6104cd610f12565b6040516104da9190613d6d565b60405180910390f35b6104fd60048036038101906104f8919061369b565b610f36565b005b610519600480360381019061051491906134c0565b610f57565b005b6105356004803603810190610530919061330d565b611016565b005b610551600480360381019061054c91906137ab565b6110f6565b60405161055e9190613da3565b60405180910390f35b610581600480360381019061057c9190613336565b611196565b60405161058e9190613d52565b60405180910390f35b6105b160048036038101906105ac9190613431565b61122a565b005b6105cd60048036038101906105c89190613729565b6112cb565b005b60008073ffffffffffffffffffffffffffffffffffffffff168373ffffffffffffffffffffffffffffffffffffffff161415610640576040517f08c379a000000000000000000000000000000000000000000000000000000000815260040161063790613e55565b60405180910390fd5b6065600083815260200190815260200160002060008473ffffffffffffffffffffffffffffffffffffffff1673ffffffffffffffffffffffffffffffffffffffff16815260200190815260200160002054905092915050565b60006106a4826116a6565b9050919050565b7f7804d923f43a17d325d77e781528e0793b2edd9890ab45fc64efd7b4b427744c6106d581611720565b6106de82611734565b3373ffffffffffffffffffffffffffffffffffffffff167f9e77fa8c1210dc6577fcd32aa0c5243ccc9780747f628458b2ec8d0665f30153836040516107249190613da3565b60405180910390a25050565b60606067805461073f9061433f565b80601f016020809104026020016040519081016040528092919081815260200182805461076b9061433f565b80156107b85780601f1061078d576101008083540402835291602001916107b8565b820191906000526020600020905b81548152906001019060200180831161079b57829003601f168201915b50505050509050919050565b7f9f2df0fed2c77648de5860a4cc508cd0818c85b8b8a1ab4ceeef8d981c8956a66107ee81611720565b60006040518060400160405280600e81526020017f6d696e74696e6720746f6b656e73000000000000000000000000000000000000815250905061083185610a7f565b610870576040517f08c379a000000000000000000000000000000000000000000000000000000000815260040161086790613e35565b60405180910390fd5b61087c8585858461174e565b5050505050565b60603073ffffffffffffffffffffffffffffffffffffffff16630e89341c836040518263ffffffff1660e01b81526004016108be9190613fd5565b60006040518083038186803b1580156108d657600080fd5b505afa1580156108ea573d6000803e3d6000fd5b505050506040513d6000823e3d601f19601f82011682018060405250810190610913919061376a565b9050919050565b600060976000838152602001908152602001600020600101549050919050565b610942611900565b73ffffffffffffffffffffffffffffffffffffffff168573ffffffffffffffffffffffffffffffffffffffff161480610988575061098785610982611900565b611196565b5b6109c7576040517f08c379a00000000000000000000000000000000000000000000000000000000081526004016109be90613e75565b60405180910390fd5b6109d48585858585611908565b5050505050565b6109e48261091a565b6109ed81611720565b6109f78383611c79565b505050565b610a04611900565b73ffffffffffffffffffffffffffffffffffffffff168173ffffffffffffffffffffffffffffffffffffffff1614610a71576040517f08c379a0000000000000000000000000000000000000000000000000000000008152600401610a6890613fb5565b60405180910390fd5b610a7b8282611d5a565b5050565b600060c960008373ffffffffffffffffffffffffffffffffffffffff1673ffffffffffffffffffffffffffffffffffffffff16815260200190815260200160002060009054906101000a900460ff169050919050565b7fa49807205ce4d355092ef5a8a18f56e8913cf4a201fbe287825b095693c21775610aff81611720565b610b297f9f2df0fed2c77648de5860a4cc508cd0818c85b8b8a1ab4ceeef8d981c8956a6836109db565b5050565b8060ca60008481526020019081526020016000209080519060200190610b54929190612f88565b505050565b60608151835114610b9f576040517f08c379a0000000000000000000000000000000000000000000000000000000008152600401610b9690613f35565b60405180910390fd5b6000835167ffffffffffffffff811115610be2577f4e487b7100000000000000000000000000000000000000000000000000000000600052604160045260246000fd5b604051908082528060200260200182016040528015610c105781602001602082028036833780820191505090505b50905060005b8451811015610cff57610ca9858281518110610c5b577f4e487b7100000000000000000000000000000000000000000000000000000000600052603260045260246000fd5b6020026020010151858381518110610c9c577f4e487b7100000000000000000000000000000000000000000000000000000000600052603260045260246000fd5b60200260200101516105cf565b828281518110610ce2577f4e487b7100000000000000000000000000000000000000000000000000000000600052603260045260246000fd5b60200260200101818152505080610cf8906143a2565b9050610c16565b508091505092915050565b7fa49807205ce4d355092ef5a8a18f56e8913cf4a201fbe287825b095693c21775610d3481611720565b610d5e7f9f2df0fed2c77648de5860a4cc508cd0818c85b8b8a1ab4ceeef8d981c8956a683610f36565b5050565b7fa49807205ce4d355092ef5a8a18f56e8913cf4a201fbe287825b095693c2177581565b7f7804d923f43a17d325d77e781528e0793b2edd9890ab45fc64efd7b4b427744c81565b7fa49807205ce4d355092ef5a8a18f56e8913cf4a201fbe287825b095693c21775610dd481611720565b600060c960008473ffffffffffffffffffffffffffffffffffffffff1673ffffffffffffffffffffffffffffffffffffffff16815260200190815260200160002060006101000a81548160ff0219169083151502179055503373ffffffffffffffffffffffffffffffffffffffff168273ffffffffffffffffffffffffffffffffffffffff167fd288ab5da2e1f37cf384a1565a3f905ad289b092fbdd31950dbbfef148c04f8860405160405180910390a35050565b60006097600084815260200190815260200160002060000160008373ffffffffffffffffffffffffffffffffffffffff1673ffffffffffffffffffffffffffffffffffffffff16815260200190815260200160002060009054906101000a900460ff16905092915050565b6000801b81565b610f0e610f07611900565b8383611e3c565b5050565b7f9f2df0fed2c77648de5860a4cc508cd0818c85b8b8a1ab4ceeef8d981c8956a681565b610f3f8261091a565b610f4881611720565b610f528383611d5a565b505050565b7f9f2df0fed2c77648de5860a4cc508cd0818c85b8b8a1ab4ceeef8d981c8956a6610f8181611720565b60006040518060400160405280601781526020017f6d696e74696e6720746f6b656e7320696e2062617463680000000000000000008152509050610fc485610a7f565b611003576040517f08c379a0000000000000000000000000000000000000000000000000000000008152600401610ffa90613e35565b60405180910390fd5b61100f85858584611fa9565b5050505050565b7fa49807205ce4d355092ef5a8a18f56e8913cf4a201fbe287825b095693c2177561104081611720565b600160c960008473ffffffffffffffffffffffffffffffffffffffff1673ffffffffffffffffffffffffffffffffffffffff16815260200190815260200160002060006101000a81548160ff0219169083151502179055503373ffffffffffffffffffffffffffffffffffffffff168273ffffffffffffffffffffffffffffffffffffffff167f0c4b48e75a1f7ab0a9a2f786b5d6c1f7789020403bff177fb54d46edb89ccc0060405160405180910390a35050565b60ca60205280600052604060002060009150905080546111159061433f565b80601f01602080910402602001604051908101604052809291908181526020018280546111419061433f565b801561118e5780601f106111635761010080835404028352916020019161118e565b820191906000526020600020905b81548152906001019060200180831161117157829003601f168201915b505050505081565b6000606660008473ffffffffffffffffffffffffffffffffffffffff1673ffffffffffffffffffffffffffffffffffffffff16815260200190815260200160002060008373ffffffffffffffffffffffffffffffffffffffff1673ffffffffffffffffffffffffffffffffffffffff16815260200190815260200160002060009054906101000a900460ff16905092915050565b611232611900565b73ffffffffffffffffffffffffffffffffffffffff168573ffffffffffffffffffffffffffffffffffffffff161480611278575061127785611272611900565b611196565b5b6112b7576040517f08c379a00000000000000000000000000000000000000000000000000000000081526004016112ae90613e75565b60405180910390fd5b6112c48585858585612223565b5050505050565b60008060019054906101000a900460ff161590508080156112fc5750600160008054906101000a900460ff1660ff16105b80611329575061130b306124c2565b1580156113285750600160008054906101000a900460ff1660ff16145b5b611368576040517f08c379a000000000000000000000000000000000000000000000000000000000815260040161135f90613eb5565b60405180910390fd5b60016000806101000a81548160ff021916908360ff16021790555080156113a5576001600060016101000a81548160ff0219169083151502179055505b6113ae826124e5565b6113b6612540565b6113e07f7804d923f43a17d325d77e781528e0793b2edd9890ab45fc64efd7b4b427744c33611c79565b61140a7f9f2df0fed2c77648de5860a4cc508cd0818c85b8b8a1ab4ceeef8d981c8956a633611c79565b6114347fa49807205ce4d355092ef5a8a18f56e8913cf4a201fbe287825b095693c2177533611c79565b3373ffffffffffffffffffffffffffffffffffffffff163373ffffffffffffffffffffffffffffffffffffffff167f7804d923f43a17d325d77e781528e0793b2edd9890ab45fc64efd7b4b427744c7f2f8788117e7eff1d82e926ec794901d17c78024a50270940304540a733656f0d60405160405180910390a43373ffffffffffffffffffffffffffffffffffffffff163373ffffffffffffffffffffffffffffffffffffffff167f9f2df0fed2c77648de5860a4cc508cd0818c85b8b8a1ab4ceeef8d981c8956a67f2f8788117e7eff1d82e926ec794901d17c78024a50270940304540a733656f0d60405160405180910390a43373ffffffffffffffffffffffffffffffffffffffff163373ffffffffffffffffffffffffffffffffffffffff167fa49807205ce4d355092ef5a8a18f56e8913cf4a201fbe287825b095693c217757f2f8788117e7eff1d82e926ec794901d17c78024a50270940304540a733656f0d60405160405180910390a46115f033600168056bc75e2d631000006040518060400160405280600d81526020017f50726f6a65637420546f6b656e0000000000000000000000000000000000000081525061174e565b3373ffffffffffffffffffffffffffffffffffffffff167fb39d1aeae5789c9ce3d79da79c7fa3f646ee70ffaf955db750a94e985f07d43b8368056bc75e2d63100000604051611641929190613dc5565b60405180910390a280156116a25760008060016101000a81548160ff0219169083151502179055507f7f26b83ff96e1f2b6a682f133852f6798a09c465da95921460cefb384740249860016040516116999190613d88565b60405180910390a15b5050565b60007f7965db0b000000000000000000000000000000000000000000000000000000007bffffffffffffffffffffffffffffffffffffffffffffffffffffffff1916827bffffffffffffffffffffffffffffffffffffffffffffffffffffffff19161480611719575061171882612591565b5b9050919050565b6117318161172c611900565b612673565b50565b806067908051906020019061174a929190612f88565b5050565b600073ffffffffffffffffffffffffffffffffffffffff168473ffffffffffffffffffffffffffffffffffffffff1614156117be576040517f08c379a00000000000000000000000000000000000000000000000000000000081526004016117b590613f75565b60405180910390fd5b60006117c8611900565b905060006117d5856126f8565b905060006117e2856126f8565b90506117f3836000898585896127be565b846065600088815260200190815260200160002060008973ffffffffffffffffffffffffffffffffffffffff1673ffffffffffffffffffffffffffffffffffffffff16815260200190815260200160002060008282546118539190614174565b925050819055508673ffffffffffffffffffffffffffffffffffffffff16600073ffffffffffffffffffffffffffffffffffffffff168473ffffffffffffffffffffffffffffffffffffffff167fc3d58168c5ae7397731d063d5bbf3d657854427343f4c083240f7aacaa2d0f6289896040516118d1929190613ff0565b60405180910390a46118e8836000898585896127c6565b6118f7836000898989896127ce565b50505050505050565b600033905090565b815183511461194c576040517f08c379a000000000000000000000000000000000000000000000000000000000815260040161194390613f55565b60405180910390fd5b600073ffffffffffffffffffffffffffffffffffffffff168473ffffffffffffffffffffffffffffffffffffffff1614156119bc576040517f08c379a00000000000000000000000000000000000000000000000000000000081526004016119b390613e95565b60405180910390fd5b60006119c6611900565b90506119d68187878787876127be565b60005b8451811015611bd6576000858281518110611a1d577f4e487b7100000000000000000000000000000000000000000000000000000000600052603260045260246000fd5b602002602001015190506000858381518110611a62577f4e487b7100000000000000000000000000000000000000000000000000000000600052603260045260246000fd5b6020026020010151905060006065600084815260200190815260200160002060008b73ffffffffffffffffffffffffffffffffffffffff1673ffffffffffffffffffffffffffffffffffffffff16815260200190815260200160002054905081811015611b04576040517f08c379a0000000000000000000000000000000000000000000000000000000008152600401611afb90613ed5565b60405180910390fd5b8181036065600085815260200190815260200160002060008c73ffffffffffffffffffffffffffffffffffffffff1673ffffffffffffffffffffffffffffffffffffffff16815260200190815260200160002081905550816065600085815260200190815260200160002060008b73ffffffffffffffffffffffffffffffffffffffff1673ffffffffffffffffffffffffffffffffffffffff1681526020019081526020016000206000828254611bbb9190614174565b9250508190555050505080611bcf906143a2565b90506119d9565b508473ffffffffffffffffffffffffffffffffffffffff168673ffffffffffffffffffffffffffffffffffffffff168273ffffffffffffffffffffffffffffffffffffffff167f4a39dc06d4c0dbc64b70af90fd698a233a518aa5d07e595d983b8c0526c8f7fb8787604051611c4d929190613d1b565b60405180910390a4611c638187878787876127c6565b611c718187878787876129b5565b505050505050565b611c838282610e8a565b611d565760016097600084815260200190815260200160002060000160008373ffffffffffffffffffffffffffffffffffffffff1673ffffffffffffffffffffffffffffffffffffffff16815260200190815260200160002060006101000a81548160ff021916908315150217905550611cfb611900565b73ffffffffffffffffffffffffffffffffffffffff168173ffffffffffffffffffffffffffffffffffffffff16837f2f8788117e7eff1d82e926ec794901d17c78024a50270940304540a733656f0d60405160405180910390a45b5050565b611d648282610e8a565b15611e385760006097600084815260200190815260200160002060000160008373ffffffffffffffffffffffffffffffffffffffff1673ffffffffffffffffffffffffffffffffffffffff16815260200190815260200160002060006101000a81548160ff021916908315150217905550611ddd611900565b73ffffffffffffffffffffffffffffffffffffffff168173ffffffffffffffffffffffffffffffffffffffff16837ff6391f5c32d9c69d2a47ea670b442974b53935d1edc7fd64eb21e047a839171b60405160405180910390a45b5050565b8173ffffffffffffffffffffffffffffffffffffffff168373ffffffffffffffffffffffffffffffffffffffff161415611eab576040517f08c379a0000000000000000000000000000000000000000000000000000000008152600401611ea290613f15565b60405180910390fd5b80606660008573ffffffffffffffffffffffffffffffffffffffff1673ffffffffffffffffffffffffffffffffffffffff16815260200190815260200160002060008473ffffffffffffffffffffffffffffffffffffffff1673ffffffffffffffffffffffffffffffffffffffff16815260200190815260200160002060006101000a81548160ff0219169083151502179055508173ffffffffffffffffffffffffffffffffffffffff168373ffffffffffffffffffffffffffffffffffffffff167f17307eab39ab6107e8899845ad3d59bd9653f200f220920489ca2b5937696c3183604051611f9c9190613d52565b60405180910390a3505050565b600073ffffffffffffffffffffffffffffffffffffffff168473ffffffffffffffffffffffffffffffffffffffff161415612019576040517f08c379a000000000000000000000000000000000000000000000000000000000815260040161201090613f75565b60405180910390fd5b815183511461205d576040517f08c379a000000000000000000000000000000000000000000000000000000000815260040161205490613f55565b60405180910390fd5b6000612067611900565b9050612078816000878787876127be565b60005b845181101561217e578381815181106120bd577f4e487b7100000000000000000000000000000000000000000000000000000000600052603260045260246000fd5b602002602001015160656000878481518110612102577f4e487b7100000000000000000000000000000000000000000000000000000000600052603260045260246000fd5b6020026020010151815260200190815260200160002060008873ffffffffffffffffffffffffffffffffffffffff1673ffffffffffffffffffffffffffffffffffffffff16815260200190815260200160002060008282546121649190614174565b925050819055508080612176906143a2565b91505061207b565b508473ffffffffffffffffffffffffffffffffffffffff16600073ffffffffffffffffffffffffffffffffffffffff168273ffffffffffffffffffffffffffffffffffffffff167f4a39dc06d4c0dbc64b70af90fd698a233a518aa5d07e595d983b8c0526c8f7fb87876040516121f6929190613d1b565b60405180910390a461220d816000878787876127c6565b61221c816000878787876129b5565b5050505050565b600073ffffffffffffffffffffffffffffffffffffffff168473ffffffffffffffffffffffffffffffffffffffff161415612293576040517f08c379a000000000000000000000000000000000000000000000000000000000815260040161228a90613e95565b60405180910390fd5b600061229d611900565b905060006122aa856126f8565b905060006122b7856126f8565b90506122c78389898585896127be565b60006065600088815260200190815260200160002060008a73ffffffffffffffffffffffffffffffffffffffff1673ffffffffffffffffffffffffffffffffffffffff1681526020019081526020016000205490508581101561235f576040517f08c379a000000000000000000000000000000000000000000000000000000000815260040161235690613ed5565b60405180910390fd5b8581036065600089815260200190815260200160002060008b73ffffffffffffffffffffffffffffffffffffffff1673ffffffffffffffffffffffffffffffffffffffff16815260200190815260200160002081905550856065600089815260200190815260200160002060008a73ffffffffffffffffffffffffffffffffffffffff1673ffffffffffffffffffffffffffffffffffffffff16815260200190815260200160002060008282546124169190614174565b925050819055508773ffffffffffffffffffffffffffffffffffffffff168973ffffffffffffffffffffffffffffffffffffffff168573ffffffffffffffffffffffffffffffffffffffff167fc3d58168c5ae7397731d063d5bbf3d657854427343f4c083240f7aacaa2d0f628a8a604051612493929190613ff0565b60405180910390a46124a9848a8a86868a6127c6565b6124b7848a8a8a8a8a6127ce565b505050505050505050565b6000808273ffffffffffffffffffffffffffffffffffffffff163b119050919050565b600060019054906101000a900460ff16612534576040517f08c379a000000000000000000000000000000000000000000000000000000000815260040161252b90613ef5565b60405180910390fd5b61253d81612b9c565b50565b600060019054906101000a900460ff1661258f576040517f08c379a000000000000000000000000000000000000000000000000000000000815260040161258690613ef5565b60405180910390fd5b565b60007fd9b67a26000000000000000000000000000000000000000000000000000000007bffffffffffffffffffffffffffffffffffffffffffffffffffffffff1916827bffffffffffffffffffffffffffffffffffffffffffffffffffffffff1916148061265c57507f0e89341c000000000000000000000000000000000000000000000000000000007bffffffffffffffffffffffffffffffffffffffffffffffffffffffff1916827bffffffffffffffffffffffffffffffffffffffffffffffffffffffff1916145b8061266c575061266b82612bf7565b5b9050919050565b61267d8282610e8a565b6126f45761268a81612c61565b6126988360001c6020612c8e565b6040516020016126a9929190613bfd565b6040516020818303038152906040526040517f08c379a00000000000000000000000000000000000000000000000000000000081526004016126eb9190613da3565b60405180910390fd5b5050565b60606000600167ffffffffffffffff81111561273d577f4e487b7100000000000000000000000000000000000000000000000000000000600052604160045260246000fd5b60405190808252806020026020018201604052801561276b5781602001602082028036833780820191505090505b50905082816000815181106127a9577f4e487b7100000000000000000000000000000000000000000000000000000000600052603260045260246000fd5b60200260200101818152505080915050919050565b505050505050565b505050505050565b6127ed8473ffffffffffffffffffffffffffffffffffffffff166124c2565b156129ad578373ffffffffffffffffffffffffffffffffffffffff1663f23a6e6187878686866040518663ffffffff1660e01b8152600401612833959493929190613c9f565b602060405180830381600087803b15801561284d57600080fd5b505af192505050801561287e57506040513d601f19601f8201168201806040525081019061287b9190613700565b60015b6129245761288a614478565b806308c379a014156128e7575061289f61495f565b806128aa57506128e9565b806040517f08c379a00000000000000000000000000000000000000000000000000000000081526004016128de9190613da3565b60405180910390fd5b505b6040517f08c379a000000000000000000000000000000000000000000000000000000000815260040161291b90613f95565b60405180910390fd5b63f23a6e6160e01b7bffffffffffffffffffffffffffffffffffffffffffffffffffffffff1916817bffffffffffffffffffffffffffffffffffffffffffffffffffffffff1916146129ab576040517f08c379a00000000000000000000000000000000000000000000000000000000081526004016129a290613e15565b60405180910390fd5b505b505050505050565b6129d48473ffffffffffffffffffffffffffffffffffffffff166124c2565b15612b94578373ffffffffffffffffffffffffffffffffffffffff1663bc197c8187878686866040518663ffffffff1660e01b8152600401612a1a959493929190613c37565b602060405180830381600087803b158015612a3457600080fd5b505af1925050508015612a6557506040513d601f19601f82011682018060405250810190612a629190613700565b60015b612b0b57612a71614478565b806308c379a01415612ace5750612a8661495f565b80612a915750612ad0565b806040517f08c379a0000000000000000000000000000000000000000000000000000000008152600401612ac59190613da3565b60405180910390fd5b505b6040517f08c379a0000000000000000000000000000000000000000000000000000000008152600401612b0290613f95565b60405180910390fd5b63bc197c8160e01b7bffffffffffffffffffffffffffffffffffffffffffffffffffffffff1916817bffffffffffffffffffffffffffffffffffffffffffffffffffffffff191614612b92576040517f08c379a0000000000000000000000000000000000000000000000000000000008152600401612b8990613e15565b60405180910390fd5b505b505050505050565b600060019054906101000a900460ff16612beb576040517f08c379a0000000000000000000000000000000000000000000000000000000008152600401612be290613ef5565b60405180910390fd5b612bf481611734565b50565b60007f01ffc9a7000000000000000000000000000000000000000000000000000000007bffffffffffffffffffffffffffffffffffffffffffffffffffffffff1916827bffffffffffffffffffffffffffffffffffffffffffffffffffffffff1916149050919050565b6060612c878273ffffffffffffffffffffffffffffffffffffffff16601460ff16612c8e565b9050919050565b606060006002836002612ca191906141ca565b612cab9190614174565b67ffffffffffffffff811115612cea577f4e487b7100000000000000000000000000000000000000000000000000000000600052604160045260246000fd5b6040519080825280601f01601f191660200182016040528015612d1c5781602001600182028036833780820191505090505b5090507f300000000000000000000000000000000000000000000000000000000000000081600081518110612d7a577f4e487b7100000000000000000000000000000000000000000000000000000000600052603260045260246000fd5b60200101907effffffffffffffffffffffffffffffffffffffffffffffffffffffffffffff1916908160001a9053507f780000000000000000000000000000000000000000000000000000000000000081600181518110612e04577f4e487b7100000000000000000000000000000000000000000000000000000000600052603260045260246000fd5b60200101907effffffffffffffffffffffffffffffffffffffffffffffffffffffffffffff1916908160001a90535060006001846002612e4491906141ca565b612e4e9190614174565b90505b6001811115612f3a577f3031323334353637383961626364656600000000000000000000000000000000600f861660108110612eb6577f4e487b7100000000000000000000000000000000000000000000000000000000600052603260045260246000fd5b1a60f81b828281518110612ef3577f4e487b7100000000000000000000000000000000000000000000000000000000600052603260045260246000fd5b60200101907effffffffffffffffffffffffffffffffffffffffffffffffffffffffffffff1916908160001a905350600485901c945080612f3390614315565b9050612e51565b5060008414612f7e576040517f08c379a0000000000000000000000000000000000000000000000000000000008152600401612f7590613df5565b60405180910390fd5b8091505092915050565b828054612f949061433f565b90600052602060002090601f016020900481019282612fb65760008555612ffd565b82601f10612fcf57805160ff1916838001178555612ffd565b82800160010185558215612ffd579182015b82811115612ffc578251825591602001919060010190612fe1565b5b50905061300a919061300e565b5090565b5b8082111561302757600081600090555060010161300f565b5090565b600061303e6130398461403e565b614019565b9050808382526020820190508285602086028201111561305d57600080fd5b60005b8581101561308d578161307388826131bd565b845260208401935060208301925050600181019050613060565b5050509392505050565b60006130aa6130a58461406a565b614019565b905080838252602082019050828560208602820111156130c957600080fd5b60005b858110156130f957816130df88826132f8565b8452602084019350602083019250506001810190506130cc565b5050509392505050565b600061311661311184614096565b614019565b90508281526020810184848401111561312e57600080fd5b6131398482856142d3565b509392505050565b600061315461314f846140c7565b614019565b90508281526020810184848401111561316c57600080fd5b6131778482856142d3565b509392505050565b600061319261318d846140c7565b614019565b9050828152602081018484840111156131aa57600080fd5b6131b58482856142e2565b509392505050565b6000813590506131cc816149f5565b92915050565b600082601f8301126131e357600080fd5b81356131f384826020860161302b565b91505092915050565b600082601f83011261320d57600080fd5b813561321d848260208601613097565b91505092915050565b60008135905061323581614a0c565b92915050565b60008135905061324a81614a23565b92915050565b60008135905061325f81614a3a565b92915050565b60008151905061327481614a3a565b92915050565b600082601f83011261328b57600080fd5b813561329b848260208601613103565b91505092915050565b600082601f8301126132b557600080fd5b81356132c5848260208601613141565b91505092915050565b600082601f8301126132df57600080fd5b81516132ef84826020860161317f565b91505092915050565b60008135905061330781614a51565b92915050565b60006020828403121561331f57600080fd5b600061332d848285016131bd565b91505092915050565b6000806040838503121561334957600080fd5b6000613357858286016131bd565b9250506020613368858286016131bd565b9150509250929050565b600080600080600060a0868803121561338a57600080fd5b6000613398888289016131bd565b95505060206133a9888289016131bd565b945050604086013567ffffffffffffffff8111156133c657600080fd5b6133d2888289016131fc565b935050606086013567ffffffffffffffff8111156133ef57600080fd5b6133fb888289016131fc565b925050608086013567ffffffffffffffff81111561341857600080fd5b6134248882890161327a565b9150509295509295909350565b600080600080600060a0868803121561344957600080fd5b6000613457888289016131bd565b9550506020613468888289016131bd565b9450506040613479888289016132f8565b935050606061348a888289016132f8565b925050608086013567ffffffffffffffff8111156134a757600080fd5b6134b38882890161327a565b9150509295509295909350565b6000806000606084860312156134d557600080fd5b60006134e3868287016131bd565b935050602084013567ffffffffffffffff81111561350057600080fd5b61350c868287016131fc565b925050604084013567ffffffffffffffff81111561352957600080fd5b613535868287016131fc565b9150509250925092565b6000806040838503121561355257600080fd5b6000613560858286016131bd565b925050602061357185828601613226565b9150509250929050565b6000806040838503121561358e57600080fd5b600061359c858286016131bd565b92505060206135ad858286016132f8565b9150509250929050565b6000806000606084860312156135cc57600080fd5b60006135da868287016131bd565b93505060206135eb868287016132f8565b92505060406135fc868287016132f8565b9150509250925092565b6000806040838503121561361957600080fd5b600083013567ffffffffffffffff81111561363357600080fd5b61363f858286016131d2565b925050602083013567ffffffffffffffff81111561365c57600080fd5b613668858286016131fc565b9150509250929050565b60006020828403121561368457600080fd5b60006136928482850161323b565b91505092915050565b600080604083850312156136ae57600080fd5b60006136bc8582860161323b565b92505060206136cd858286016131bd565b9150509250929050565b6000602082840312156136e957600080fd5b60006136f784828501613250565b91505092915050565b60006020828403121561371257600080fd5b600061372084828501613265565b91505092915050565b60006020828403121561373b57600080fd5b600082013567ffffffffffffffff81111561375557600080fd5b613761848285016132a4565b91505092915050565b60006020828403121561377c57600080fd5b600082015167ffffffffffffffff81111561379657600080fd5b6137a2848285016132ce565b91505092915050565b6000602082840312156137bd57600080fd5b60006137cb848285016132f8565b91505092915050565b600080604083850312156137e757600080fd5b60006137f5858286016132f8565b925050602083013567ffffffffffffffff81111561381257600080fd5b61381e858286016132a4565b9150509250929050565b60006138348383613bdf565b60208301905092915050565b61384981614224565b82525050565b600061385a82614108565b6138648185614136565b935061386f836140f8565b8060005b838110156138a05781516138878882613828565b975061389283614129565b925050600181019050613873565b5085935050505092915050565b6138b681614236565b82525050565b6138c581614242565b82525050565b60006138d682614113565b6138e08185614147565b93506138f08185602086016142e2565b6138f98161449a565b840191505092915050565b61390d816142af565b82525050565b61391c816142c1565b82525050565b600061392d8261411e565b6139378185614158565b93506139478185602086016142e2565b6139508161449a565b840191505092915050565b60006139668261411e565b6139708185614169565b93506139808185602086016142e2565b80840191505092915050565b6000613999602083614158565b91506139a4826144b8565b602082019050919050565b60006139bc602883614158565b91506139c7826144e1565b604082019050919050565b60006139df601a83614158565b91506139ea82614530565b602082019050919050565b6000613a02602a83614158565b9150613a0d82614559565b604082019050919050565b6000613a25602e83614158565b9150613a30826145a8565b604082019050919050565b6000613a48602583614158565b9150613a53826145f7565b604082019050919050565b6000613a6b602e83614158565b9150613a7682614646565b604082019050919050565b6000613a8e602a83614158565b9150613a9982614695565b604082019050919050565b6000613ab1602b83614158565b9150613abc826146e4565b604082019050919050565b6000613ad4601783614169565b9150613adf82614733565b601782019050919050565b6000613af7602983614158565b9150613b028261475c565b604082019050919050565b6000613b1a602983614158565b9150613b25826147ab565b604082019050919050565b6000613b3d602883614158565b9150613b48826147fa565b604082019050919050565b6000613b60602183614158565b9150613b6b82614849565b604082019050919050565b6000613b83603483614158565b9150613b8e82614898565b604082019050919050565b6000613ba6601183614169565b9150613bb1826148e7565b601182019050919050565b6000613bc9602f83614158565b9150613bd482614910565b604082019050919050565b613be881614298565b82525050565b613bf781614298565b82525050565b6000613c0882613ac7565b9150613c14828561395b565b9150613c1f82613b99565b9150613c2b828461395b565b91508190509392505050565b600060a082019050613c4c6000830188613840565b613c596020830187613840565b8181036040830152613c6b818661384f565b90508181036060830152613c7f818561384f565b90508181036080830152613c9381846138cb565b90509695505050505050565b600060a082019050613cb46000830188613840565b613cc16020830187613840565b613cce6040830186613bee565b613cdb6060830185613bee565b8181036080830152613ced81846138cb565b90509695505050505050565b60006020820190508181036000830152613d13818461384f565b905092915050565b60006040820190508181036000830152613d35818561384f565b90508181036020830152613d49818461384f565b90509392505050565b6000602082019050613d6760008301846138ad565b92915050565b6000602082019050613d8260008301846138bc565b92915050565b6000602082019050613d9d6000830184613913565b92915050565b60006020820190508181036000830152613dbd8184613922565b905092915050565b60006040820190508181036000830152613ddf8185613922565b9050613dee6020830184613904565b9392505050565b60006020820190508181036000830152613e0e8161398c565b9050919050565b60006020820190508181036000830152613e2e816139af565b9050919050565b60006020820190508181036000830152613e4e816139d2565b9050919050565b60006020820190508181036000830152613e6e816139f5565b9050919050565b60006020820190508181036000830152613e8e81613a18565b9050919050565b60006020820190508181036000830152613eae81613a3b565b9050919050565b60006020820190508181036000830152613ece81613a5e565b9050919050565b60006020820190508181036000830152613eee81613a81565b9050919050565b60006020820190508181036000830152613f0e81613aa4565b9050919050565b60006020820190508181036000830152613f2e81613aea565b9050919050565b60006020820190508181036000830152613f4e81613b0d565b9050919050565b60006020820190508181036000830152613f6e81613b30565b9050919050565b60006020820190508181036000830152613f8e81613b53565b9050919050565b60006020820190508181036000830152613fae81613b76565b9050919050565b60006020820190508181036000830152613fce81613bbc565b9050919050565b6000602082019050613fea6000830184613bee565b92915050565b60006040820190506140056000830185613bee565b6140126020830184613bee565b9392505050565b6000614023614034565b905061402f8282614371565b919050565b6000604051905090565b600067ffffffffffffffff82111561405957614058614449565b5b602082029050602081019050919050565b600067ffffffffffffffff82111561408557614084614449565b5b602082029050602081019050919050565b600067ffffffffffffffff8211156140b1576140b0614449565b5b6140ba8261449a565b9050602081019050919050565b600067ffffffffffffffff8211156140e2576140e1614449565b5b6140eb8261449a565b9050602081019050919050565b6000819050602082019050919050565b600081519050919050565b600081519050919050565b600081519050919050565b6000602082019050919050565b600082825260208201905092915050565b600082825260208201905092915050565b600082825260208201905092915050565b600081905092915050565b600061417f82614298565b915061418a83614298565b9250827fffffffffffffffffffffffffffffffffffffffffffffffffffffffffffffffff038211156141bf576141be6143eb565b5b828201905092915050565b60006141d582614298565b91506141e083614298565b9250817fffffffffffffffffffffffffffffffffffffffffffffffffffffffffffffffff0483118215151615614219576142186143eb565b5b828202905092915050565b600061422f82614278565b9050919050565b60008115159050919050565b6000819050919050565b60007fffffffff0000000000000000000000000000000000000000000000000000000082169050919050565b600073ffffffffffffffffffffffffffffffffffffffff82169050919050565b6000819050919050565b600060ff82169050919050565b60006142ba82614298565b9050919050565b60006142cc826142a2565b9050919050565b82818337600083830152505050565b60005b838110156143005780820151818401526020810190506142e5565b8381111561430f576000848401525b50505050565b600061432082614298565b91506000821415614334576143336143eb565b5b600182039050919050565b6000600282049050600182168061435757607f821691505b6020821081141561436b5761436a61441a565b5b50919050565b61437a8261449a565b810181811067ffffffffffffffff8211171561439957614398614449565b5b80604052505050565b60006143ad82614298565b91507fffffffffffffffffffffffffffffffffffffffffffffffffffffffffffffffff8214156143e0576143df6143eb565b5b600182019050919050565b7f4e487b7100000000000000000000000000000000000000000000000000000000600052601160045260246000fd5b7f4e487b7100000000000000000000000000000000000000000000000000000000600052602260045260246000fd5b7f4e487b7100000000000000000000000000000000000000000000000000000000600052604160045260246000fd5b600060033d11156144975760046000803e6144946000516144ab565b90505b90565b6000601f19601f8301169050919050565b60008160e01c9050919050565b7f537472696e67733a20686578206c656e67746820696e73756666696369656e74600082015250565b7f455243313135353a204552433131353552656365697665722072656a6563746560008201527f6420746f6b656e73000000000000000000000000000000000000000000000000602082015250565b7f4163636f756e74206973206e6f742077686974656c6973746564000000000000600082015250565b7f455243313135353a2061646472657373207a65726f206973206e6f742061207660008201527f616c6964206f776e657200000000000000000000000000000000000000000000602082015250565b7f455243313135353a2063616c6c6572206973206e6f7420746f6b656e206f776e60008201527f6572206f7220617070726f766564000000000000000000000000000000000000602082015250565b7f455243313135353a207472616e7366657220746f20746865207a65726f20616460008201527f6472657373000000000000000000000000000000000000000000000000000000602082015250565b7f496e697469616c697a61626c653a20636f6e747261637420697320616c72656160008201527f647920696e697469616c697a6564000000000000000000000000000000000000602082015250565b7f455243313135353a20696e73756666696369656e742062616c616e636520666f60008201527f72207472616e7366657200000000000000000000000000000000000000000000602082015250565b7f496e697469616c697a61626c653a20636f6e7472616374206973206e6f74206960008201527f6e697469616c697a696e67000000000000000000000000000000000000000000602082015250565b7f416363657373436f6e74726f6c3a206163636f756e7420000000000000000000600082015250565b7f455243313135353a2073657474696e6720617070726f76616c2073746174757360008201527f20666f722073656c660000000000000000000000000000000000000000000000602082015250565b7f455243313135353a206163636f756e747320616e6420696473206c656e67746860008201527f206d69736d617463680000000000000000000000000000000000000000000000602082015250565b7f455243313135353a2069647320616e6420616d6f756e7473206c656e6774682060008201527f6d69736d61746368000000000000000000000000000000000000000000000000602082015250565b7f455243313135353a206d696e7420746f20746865207a65726f2061646472657360008201527f7300000000000000000000000000000000000000000000000000000000000000602082015250565b7f455243313135353a207472616e7366657220746f206e6f6e2d4552433131353560008201527f526563656976657220696d706c656d656e746572000000000000000000000000602082015250565b7f206973206d697373696e6720726f6c6520000000000000000000000000000000600082015250565b7f416363657373436f6e74726f6c3a2063616e206f6e6c792072656e6f756e636560008201527f20726f6c657320666f722073656c660000000000000000000000000000000000602082015250565b600060443d101561496f576149f2565b614977614034565b60043d036004823e80513d602482011167ffffffffffffffff8211171561499f5750506149f2565b808201805167ffffffffffffffff8111156149bd57505050506149f2565b80602083010160043d0385018111156149da5750505050506149f2565b6149e982602001850186614371565b82955050505050505b90565b6149fe81614224565b8114614a0957600080fd5b50565b614a1581614236565b8114614a2057600080fd5b50565b614a2c81614242565b8114614a3757600080fd5b50565b614a438161424c565b8114614a4e57600080fd5b50565b614a5a81614298565b8114614a6557600080fd5b5056fea264697066735822122000fdc9ced53dddc7b85d6337f5dd9186fb3cd4996ac49e7eba79a0a91bd4a28364736f6c63430008040033",
  "linkReferences": {},
  "deployedLinkReferences": {}
}