{
  "_format": "hh-sol-artifact-1",
  "contractName": "Proxy",
  "sourceName": "contracts/EIP1155UpgradeableProxy.sol",
  "abi": [
    {
      "inputs": [
        {
          "internalType": "address",
          "name": "initialImplementation",
          "type": "address"
        },
        {
          "internalType": "address",
          "name": "initialAdmin",
          "type": "address"
        }
      ],
      "stateMutability": "nonpayable",
      "type": "constructor"
    },
    {
      "stateMutability": "payable",
      "type": "fallback"
    },
    {
      "inputs": [],
      "name": "getAdmin",
      "outputs": [
        {
          "internalType": "address",
          "name": "",
          "type": "address"
        }
      ],
      "stateMutability": "view",
      "type": "function"
    },
    {
      "inputs": [],
      "name": "getImplementation",
      "outputs": [
        {
          "internalType": "address",
          "name": "",
          "type": "address"
        }
      ],
      "stateMutability": "view",
      "type": "function"
    },
    {
      "inputs": [
        {
          "internalType": "address",
          "name": "newImplementation",
          "type": "address"
        }
      ],
      "name": "upgradeTo",
      "outputs": [],
      "stateMutability": "nonpayable",
      "type": "function"
    },
    {
      "stateMutability": "payable",
      "type": "receive"
    }
  ],
  "bytecode": "0x608060405234801561001057600080fd5b506040516105ba3803806105ba833981810160405281019061003291906100cf565b816000806101000a81548173ffffffffffffffffffffffffffffffffffffffff021916908373ffffffffffffffffffffffffffffffffffffffff16021790555080600160006101000a81548173ffffffffffffffffffffffffffffffffffffffff021916908373ffffffffffffffffffffffffffffffffffffffff1602179055505050610154565b6000815190506100c98161013d565b92915050565b600080604083850312156100e257600080fd5b60006100f0858286016100ba565b9250506020610101858286016100ba565b9150509250929050565b60006101168261011d565b9050919050565b600073ffffffffffffffffffffffffffffffffffffffff82169050919050565b6101468161010b565b811461015157600080fd5b50565b610457806101636000396000f3fe6080604052600436106100385760003560e01c80633659cfe6146100e25780636e9960c31461010b578063aaf10f42146101365761003f565b3661003f57005b6000610049610161565b9050600073ffffffffffffffffffffffffffffffffffffffff168173ffffffffffffffffffffffffffffffffffffffff1614156100bb576040517f08c379a00000000000000000000000000000000000000000000000000000000081526004016100b290610335565b60405180910390fd5b60405136600082376000803683855af43d806000843e81600081146100de578184f35b8184fd5b3480156100ee57600080fd5b506101096004803603810190610104919061029c565b61018a565b005b34801561011757600080fd5b5061012061025d565b60405161012d919061031a565b60405180910390f35b34801561014257600080fd5b5061014b610161565b604051610158919061031a565b60405180910390f35b60008060009054906101000a900473ffffffffffffffffffffffffffffffffffffffff16905090565b600160009054906101000a900473ffffffffffffffffffffffffffffffffffffffff1673ffffffffffffffffffffffffffffffffffffffff163373ffffffffffffffffffffffffffffffffffffffff161461021a576040517f08c379a000000000000000000000000000000000000000000000000000000000815260040161021190610355565b60405180910390fd5b806000806101000a81548173ffffffffffffffffffffffffffffffffffffffff021916908373ffffffffffffffffffffffffffffffffffffffff16021790555050565b6000600160009054906101000a900473ffffffffffffffffffffffffffffffffffffffff16905090565b6000813590506102968161040a565b92915050565b6000602082840312156102ae57600080fd5b60006102bc84828501610287565b91505092915050565b6102ce81610386565b82525050565b60006102e1601683610375565b91506102ec826103b8565b602082019050919050565b6000610304601683610375565b915061030f826103e1565b602082019050919050565b600060208201905061032f60008301846102c5565b92915050565b6000602082019050818103600083015261034e816102d4565b9050919050565b6000602082019050818103600083015261036e816102f7565b9050919050565b600082825260208201905092915050565b600061039182610398565b9050919050565b600073ffffffffffffffffffffffffffffffffffffffff82169050919050565b7f496d706c656d656e746174696f6e206e6f742073657400000000000000000000600082015250565b7f4f6e6c792061646d696e2063616e207570677261646500000000000000000000600082015250565b61041381610386565b811461041e57600080fd5b5056fea2646970667358221220aef36725e34d60b64e20609a5a8b8668e4e9a3db2448be4ad37845caf8a8042a64736f6c63430008040033",
  "linkReferences": {},
  "deployedLinkReferences": {}
}